:100000000C9453000C947B000C947B000C947B00AC
:100010000C947B000C947B000C947B000C947B0074
:100020000C947B000C947B000C947B000C947B0064
:100030000C947B000C947B000C9485010C947B0049
:100040000C940C020C947B000C94B9010C94E60106
:100050000C947B000C947B000C947B000C947B0034
:100060000C947B000C947B0000000000250028000D
:100070002B0000000000240027002A0004040404D0
:100080000404040402020202020203030303030342
:10009000010204081020408001020408102001021F
:1000A00004081020540211241FBECFEFD8E0DEBF99
:1000B000CDBF11E0A0E0B1E0EAE6F6E002C00590B5
:1000C0000D92A831B107D9F721E0A8E1B1E001C054
:1000D0001D92AE3BB207E1F710E0C3E5D0E004C0EB
:1000E0002197FE010E942D03C235D107C9F70E9456
:1000F00081020C9433030C940000FC01848DDF0119
:10010000A80FB11DA35ABF4F2C91848D90E001968A
:100110008F739927848FA689B7892C93A089B18979
:100120008C91837080648C93938D848D981306C01A
:100130000288F389E02D80818F7D80830895FC0102
:10014000818D228D90E0805C9F4F821B91098F737F
:100150009927089581E291E00E949F009C0181E02F
:10016000232B09F480E0089580E090E0892B29F0AA
:100170000E94AA0081110C9400000895FC01918D49
:10018000828D981731F0828DE80FF11D858D90E0FA
:1001900008958FEF9FEF0895FC01918D828D981740
:1001A00061F0828DDF01A80FB11D5D968C91928D5B
:1001B0009F5F9F73928F90E008958FEF9FEF089558
:1001C000FC01538D448D252F30E0842F90E0821B5D
:1001D000930B541710F0CF96089501970895CF937D
:1001E000DF93EC01888D8823B9F0AA89BB89E8895F
:1001F000F9898C9185FD03C0808186FD0DC00FB605
:1002000007FCF7CF8C9185FFF2CF808185FFEDCF82
:10021000CE010E947D00E9CFDF91CF910895EF924A
:10022000FF920F931F93CF93DF93EC01F62E81E0A3
:10023000888F9B8D8C8D98131AC0E889F9898081ED
:1002400085FF15C09FB7F894EE89FF896083E88920
:10025000F98980818370806480839FBF81E090E012
:10026000DF91CF911F910F91FF90EF9008950B8D2B
:1002700010E00F5F1F4F0F731127E02E8C8D8E1132
:100280000CC00FB607FCFACFE889F989808185FF99
:10029000F5CFCE010E947D00F1CF8B8DFE01E80FDE
:1002A000F11DE35AFF4FF0829FB7F8940B8FEA8954
:1002B000FB8980818062D0CFCF92DF92EF92FF9254
:1002C0000F931F93CF93DF937C016A0110E000E04E
:1002D0000C151D0581F0EB01D701ED91FC9101900A
:1002E000F081E02D6991C7010995892B21F00F5FFD
:1002F0001F4FBE01EDCFC801DF91CF911F910F912C
:10030000FF90EF90DF90CF9008951F920F920FB65D
:100310000F9211242F933F934F935F936F937F938B
:100320008F939F93AF93BF93EF93FF9341E050E080
:1003300062E171E081E291E00E945C0142E050E004
:1003400064E171E081E291E00E945C018BB18BB9C4
:10035000FF91EF91BF91AF919F918F917F916F919D
:100360005F914F913F912F910F900FBE0F901F9073
:1003700018952F932FB72F938F939F93EF93FF93FE
:10038000E0913101F09132018081E0913701F091EB
:10039000380182FD19C0908180913A018F5F8F737F
:1003A00020913B01821741F0E0913A01F0E0EF5DCE
:1003B000FE4F958F80933A01FF91EF919F918F911E
:1003C0002F912FBF2F9118958081F6CF1F920F92FA
:1003D0000FB60F9211242F933F934F935F936F9318
:1003E0007F938F939F93AF93BF93EF93FF9381E29C
:1003F00091E00E947D00FF91EF91BF91AF919F919D
:100400008F917F916F915F914F913F912F910F90BD
:100410000FBE0F901F9018951F921FB61F921124A8
:100420002F933F938F939F93AF93BF9380911D0121
:1004300090911E01A0911F01B091200130911C01EB
:1004400023E0230F2D3750F50196A11DB11D2093F8
:100450001C0180931D0190931E01A0931F01B09376
:1004600020018091180190911901A0911A01B09179
:100470001B010196A11DB11D8093180190931901D4
:10048000A0931A01B0931B01BF91AF919F918F91DF
:100490003F912F911F901FBE1F90189526E8230FA4
:1004A0000296A11DB11DD3CFE1E2F1E013821282C9
:1004B00088EE93E0A0E0B0E084839583A683B783C1
:1004C00084E091E09183808385EC90E09587848738
:1004D00084EC90E09787868780EC90E0918B808B0E
:1004E00081EC90E0938B828B82EC90E0958B848BF7
:1004F00086EC90E0978B868B118E128E138E148E65
:100500000895789484B5826084BD84B5816084BD8B
:1005100085B5826085BD85B5816085BD80916E00A1
:10052000816080936E0010928100809181008260D2
:10053000809381008091810081608093810080910F
:1005400080008160809380008091B10084608093FE
:10055000B1008091B00081608093B00080917A00FA
:10056000846080937A0080917A00826080937A0020
:1005700080917A00816080937A0080917A0080680F
:1005800080937A001092C100E0913101F091320124
:1005900082E08083E0912D01F0912E011082E091A4
:1005A0002F01F09130018FEC808310923901E0919E
:1005B0003501F091360186E08083E0913301F091BE
:1005C0003401808180618083E0913301F0913401B6
:1005D000808188608083E0913301F09134018081D3
:1005E00080688083E0913301F091340180818F7DB8
:1005F0008083EDE9F0E02491E9E8F0E0849188233C
:1006000099F090E0880F991FFC01EE58FF4FA591DB
:10061000B491FC01E859FF4F859194918FB7F894FC
:10062000EC91E22BEC938FBF14BC15BC16BC8DEF84
:1006300087BD85B5856085BD80916E0082608093A1
:100640006E007894C0E0D0E02097F1F30E94AA00F9
:100650008823D1F30E940000F7CFEE0FFF1F059013
:0A066000F491E02D0994F894FFCF07
:10066A00000000000F015C01E000EF009F00CC00D9
:08067A00BE0061000D0A000042
:00000001FF
